{
  "_format": "hh-sol-artifact-1",
  "contractName": "BasicNft",
  "sourceName": "contracts/test/BasicNft.sol",
  "abi": [
    {
      "inputs": [],
      "stateMutability": "nonpayable",
      "type": "constructor"
    },
    {
      "anonymous": false,
      "inputs": [
        {
          "indexed": true,
          "internalType": "address",
          "name": "owner",
          "type": "address"
        },
        {
          "indexed": true,
          "internalType": "address",
          "name": "approved",
          "type": "address"
        },
        {
          "indexed": true,
          "internalType": "uint256",
          "name": "tokenId",
          "type": "uint256"
        }
      ],
      "name": "Approval",
      "type": "event"
    },
    {
      "anonymous": false,
      "inputs": [
        {
          "indexed": true,
          "internalType": "address",
          "name": "owner",
          "type": "address"
        },
        {
          "indexed": true,
          "internalType": "address",
          "name": "operator",
          "type": "address"
        },
        {
          "indexed": false,
          "internalType": "bool",
          "name": "approved",
          "type": "bool"
        }
      ],
      "name": "ApprovalForAll",
      "type": "event"
    },
    {
      "anonymous": false,
      "inputs": [
        {
          "indexed": true,
          "internalType": "uint256",
          "name": "tokenId",
          "type": "uint256"
        }
      ],
      "name": "NftMinted",
      "type": "event"
    },
    {
      "anonymous": false,
      "inputs": [
        {
          "indexed": true,
          "internalType": "address",
          "name": "from",
          "type": "address"
        },
        {
          "indexed": true,
          "internalType": "address",
          "name": "to",
          "type": "address"
        },
        {
          "indexed": true,
          "internalType": "uint256",
          "name": "tokenId",
          "type": "uint256"
        }
      ],
      "name": "Transfer",
      "type": "event"
    },
    {
      "inputs": [
        {
          "internalType": "address",
          "name": "to",
          "type": "address"
        },
        {
          "internalType": "uint256",
          "name": "tokenId",
          "type": "uint256"
        }
      ],
      "name": "approve",
      "outputs": [],
      "stateMutability": "nonpayable",
      "type": "function"
    },
    {
      "inputs": [
        {
          "internalType": "address",
          "name": "owner",
          "type": "address"
        }
      ],
      "name": "balanceOf",
      "outputs": [
        {
          "internalType": "uint256",
          "name": "",
          "type": "uint256"
        }
      ],
      "stateMutability": "view",
      "type": "function"
    },
    {
      "inputs": [
        {
          "internalType": "uint256",
          "name": "tokenId",
          "type": "uint256"
        }
      ],
      "name": "getApproved",
      "outputs": [
        {
          "internalType": "address",
          "name": "",
          "type": "address"
        }
      ],
      "stateMutability": "view",
      "type": "function"
    },
    {
      "inputs": [],
      "name": "getTokenCounter",
      "outputs": [
        {
          "internalType": "uint256",
          "name": "",
          "type": "uint256"
        }
      ],
      "stateMutability": "view",
      "type": "function"
    },
    {
      "inputs": [
        {
          "internalType": "address",
          "name": "owner",
          "type": "address"
        },
        {
          "internalType": "address",
          "name": "operator",
          "type": "address"
        }
      ],
      "name": "isApprovedForAll",
      "outputs": [
        {
          "internalType": "bool",
          "name": "",
          "type": "bool"
        }
      ],
      "stateMutability": "view",
      "type": "function"
    },
    {
      "inputs": [
        {
          "internalType": "string",
          "name": "uriStr",
          "type": "string"
        }
      ],
      "name": "mintNft",
      "outputs": [],
      "stateMutability": "nonpayable",
      "type": "function"
    },
    {
      "inputs": [],
      "name": "name",
      "outputs": [
        {
          "internalType": "string",
          "name": "",
          "type": "string"
        }
      ],
      "stateMutability": "view",
      "type": "function"
    },
    {
      "inputs": [
        {
          "internalType": "uint256",
          "name": "tokenId",
          "type": "uint256"
        }
      ],
      "name": "ownerOf",
      "outputs": [
        {
          "internalType": "address",
          "name": "",
          "type": "address"
        }
      ],
      "stateMutability": "view",
      "type": "function"
    },
    {
      "inputs": [
        {
          "internalType": "address",
          "name": "from",
          "type": "address"
        },
        {
          "internalType": "address",
          "name": "to",
          "type": "address"
        },
        {
          "internalType": "uint256",
          "name": "tokenId",
          "type": "uint256"
        }
      ],
      "name": "safeTransferFrom",
      "outputs": [],
      "stateMutability": "nonpayable",
      "type": "function"
    },
    {
      "inputs": [
        {
          "internalType": "address",
          "name": "from",
          "type": "address"
        },
        {
          "internalType": "address",
          "name": "to",
          "type": "address"
        },
        {
          "internalType": "uint256",
          "name": "tokenId",
          "type": "uint256"
        },
        {
          "internalType": "bytes",
          "name": "data",
          "type": "bytes"
        }
      ],
      "name": "safeTransferFrom",
      "outputs": [],
      "stateMutability": "nonpayable",
      "type": "function"
    },
    {
      "inputs": [
        {
          "internalType": "address",
          "name": "operator",
          "type": "address"
        },
        {
          "internalType": "bool",
          "name": "approved",
          "type": "bool"
        }
      ],
      "name": "setApprovalForAll",
      "outputs": [],
      "stateMutability": "nonpayable",
      "type": "function"
    },
    {
      "inputs": [
        {
          "internalType": "bytes4",
          "name": "interfaceId",
          "type": "bytes4"
        }
      ],
      "name": "supportsInterface",
      "outputs": [
        {
          "internalType": "bool",
          "name": "",
          "type": "bool"
        }
      ],
      "stateMutability": "view",
      "type": "function"
    },
    {
      "inputs": [],
      "name": "symbol",
      "outputs": [
        {
          "internalType": "string",
          "name": "",
          "type": "string"
        }
      ],
      "stateMutability": "view",
      "type": "function"
    },
    {
      "inputs": [
        {
          "internalType": "uint256",
          "name": "tokenId",
          "type": "uint256"
        }
      ],
      "name": "tokenURI",
      "outputs": [
        {
          "internalType": "string",
          "name": "",
          "type": "string"
        }
      ],
      "stateMutability": "view",
      "type": "function"
    },
    {
      "inputs": [
        {
          "internalType": "address",
          "name": "from",
          "type": "address"
        },
        {
          "internalType": "address",
          "name": "to",
          "type": "address"
        },
        {
          "internalType": "uint256",
          "name": "tokenId",
          "type": "uint256"
        }
      ],
      "name": "transferFrom",
      "outputs": [],
      "stateMutability": "nonpayable",
      "type": "function"
    }
  ],
  "bytecode": "0x60806040523480156200001157600080fd5b506040518060400160405280600581526020017f53746f636b0000000000000000000000000000000000000000000000000000008152506040518060400160405280600381526020017f53544b0000000000000000000000000000000000000000000000000000000000815250816000908051906020019062000096929190620000c0565b508060019080519060200190620000af929190620000c0565b5050506000600881905550620001d5565b828054620000ce9062000170565b90600052602060002090601f016020900481019282620000f257600085556200013e565b82601f106200010d57805160ff19168380011785556200013e565b828001600101855582156200013e579182015b828111156200013d57825182559160200191906001019062000120565b5b5090506200014d919062000151565b5090565b5b808211156200016c57600081600090555060010162000152565b5090565b600060028204905060018216806200018957607f821691505b60208210811415620001a0576200019f620001a6565b5b50919050565b7f4e487b7100000000000000000000000000000000000000000000000000000000600052602260045260246000fd5b61271880620001e56000396000f3fe608060405234801561001057600080fd5b50600436106100f55760003560e01c80636e02007d11610097578063b88d4fde11610066578063b88d4fde14610284578063c87b56dd146102a0578063da86f4a9146102d0578063e985e9c5146102ec576100f5565b80636e02007d146101fc57806370a082311461021a57806395d89b411461024a578063a22cb46514610268576100f5565b8063095ea7b3116100d3578063095ea7b31461017857806323b872dd1461019457806342842e0e146101b05780636352211e146101cc576100f5565b806301ffc9a7146100fa57806306fdde031461012a578063081812fc14610148575b600080fd5b610114600480360381019061010f9190611a72565b61031c565b6040516101219190611e0f565b60405180910390f35b6101326103fe565b60405161013f9190611e2a565b60405180910390f35b610162600480360381019061015d9190611b15565b610490565b60405161016f9190611da8565b60405180910390f35b610192600480360381019061018d9190611a32565b6104d6565b005b6101ae60048036038101906101a9919061191c565b6105ee565b005b6101ca60048036038101906101c5919061191c565b61064e565b005b6101e660048036038101906101e19190611b15565b61066e565b6040516101f39190611da8565b60405180910390f35b610204610720565b6040516102119190611fec565b60405180910390f35b610234600480360381019061022f91906118af565b61072a565b6040516102419190611fec565b60405180910390f35b6102526107e2565b60405161025f9190611e2a565b60405180910390f35b610282600480360381019061027d91906119f2565b610874565b005b61029e6004803603810190610299919061196f565b61088a565b005b6102ba60048036038101906102b59190611b15565b6108ec565b6040516102c79190611e2a565b60405180910390f35b6102ea60048036038101906102e59190611acc565b6109d9565b005b610306600480360381019061030191906118dc565b610afd565b6040516103139190611e0f565b60405180910390f35b60007f80ac58cd000000000000000000000000000000000000000000000000000000007bffffffffffffffffffffffffffffffffffffffffffffffffffffffff1916827bffffffffffffffffffffffffffffffffffffffffffffffffffffffff191614806103e757507f5b5e139f000000000000000000000000000000000000000000000000000000007bffffffffffffffffffffffffffffffffffffffffffffffffffffffff1916827bffffffffffffffffffffffffffffffffffffffffffffffffffffffff1916145b806103f757506103f682610b91565b5b9050919050565b60606000805461040d90612206565b80601f016020809104026020016040519081016040528092919081815260200182805461043990612206565b80156104865780601f1061045b57610100808354040283529160200191610486565b820191906000526020600020905b81548152906001019060200180831161046957829003601f168201915b5050505050905090565b600061049b82610bfb565b6004600083815260200190815260200160002060009054906101000a900473ffffffffffffffffffffffffffffffffffffffff169050919050565b60006104e18261066e565b90508073ffffffffffffffffffffffffffffffffffffffff168373ffffffffffffffffffffffffffffffffffffffff161415610552576040517f08c379a000000000000000000000000000000000000000000000000000000000815260040161054990611fac565b60405180910390fd5b8073ffffffffffffffffffffffffffffffffffffffff16610571610c46565b73ffffffffffffffffffffffffffffffffffffffff1614806105a0575061059f8161059a610c46565b610afd565b5b6105df576040517f08c379a00000000000000000000000000000000000000000000000000000000081526004016105d690611f2c565b60405180910390fd5b6105e98383610c4e565b505050565b6105ff6105f9610c46565b82610d07565b61063e576040517f08c379a000000000000000000000000000000000000000000000000000000000815260040161063590611fcc565b60405180910390fd5b610649838383610d9c565b505050565b6106698383836040518060200160405280600081525061088a565b505050565b6000806002600084815260200190815260200160002060009054906101000a900473ffffffffffffffffffffffffffffffffffffffff169050600073ffffffffffffffffffffffffffffffffffffffff168173ffffffffffffffffffffffffffffffffffffffff161415610717576040517f08c379a000000000000000000000000000000000000000000000000000000000815260040161070e90611f8c565b60405180910390fd5b80915050919050565b6000600854905090565b60008073ffffffffffffffffffffffffffffffffffffffff168273ffffffffffffffffffffffffffffffffffffffff16141561079b576040517f08c379a000000000000000000000000000000000000000000000000000000000815260040161079290611eec565b60405180910390fd5b600360008373ffffffffffffffffffffffffffffffffffffffff1673ffffffffffffffffffffffffffffffffffffffff168152602001908152602001600020549050919050565b6060600180546107f190612206565b80601f016020809104026020016040519081016040528092919081815260200182805461081d90612206565b801561086a5780601f1061083f5761010080835404028352916020019161086a565b820191906000526020600020905b81548152906001019060200180831161084d57829003601f168201915b5050505050905090565b61088661087f610c46565b8383611003565b5050565b61089b610895610c46565b83610d07565b6108da576040517f08c379a00000000000000000000000000000000000000000000000000000000081526004016108d190611fcc565b60405180910390fd5b6108e684848484611170565b50505050565b60606108f7826111cc565b610936576040517f08c379a000000000000000000000000000000000000000000000000000000000815260040161092d90611f6c565b60405180910390fd5b60076000838152602001908152602001600020805461095490612206565b80601f016020809104026020016040519081016040528092919081815260200182805461098090612206565b80156109cd5780601f106109a2576101008083540402835291602001916109cd565b820191906000526020600020905b8154815290600101906020018083116109b057829003601f168201915b50505050509050919050565b6000600854905060016008546109ef91906120c6565b60088190555081600760008381526020019081526020016000209080519060200190610a1c9291906116c3565b50610a273382611238565b610acc81600760008481526020019081526020016000208054610a4990612206565b80601f0160208091040260200160405190810160405280929190818152602001828054610a7590612206565b8015610ac25780601f10610a9757610100808354040283529160200191610ac2565b820191906000526020600020905b815481529060010190602001808311610aa557829003601f168201915b5050505050611256565b807f7f8949b6eca2b14d0feb1af0844a112998e467a4f88b8683301f3a6e409f32ae60405160405180910390a25050565b6000600560008473ffffffffffffffffffffffffffffffffffffffff1673ffffffffffffffffffffffffffffffffffffffff16815260200190815260200160002060008373ffffffffffffffffffffffffffffffffffffffff1673ffffffffffffffffffffffffffffffffffffffff16815260200190815260200160002060009054906101000a900460ff16905092915050565b60007f01ffc9a7000000000000000000000000000000000000000000000000000000007bffffffffffffffffffffffffffffffffffffffffffffffffffffffff1916827bffffffffffffffffffffffffffffffffffffffffffffffffffffffff1916149050919050565b610c04816111cc565b610c43576040517f08c379a0000000000000000000000000000000000000000000000000000000008152600401610c3a90611f8c565b60405180910390fd5b50565b600033905090565b816004600083815260200190815260200160002060006101000a81548173ffffffffffffffffffffffffffffffffffffffff021916908373ffffffffffffffffffffffffffffffffffffffff160217905550808273ffffffffffffffffffffffffffffffffffffffff16610cc18361066e565b73ffffffffffffffffffffffffffffffffffffffff167f8c5be1e5ebec7d5bd14f71427d1e84f3dd0314c0f7b2291e5b200ac8c7c3b92560405160405180910390a45050565b600080610d138361066e565b90508073ffffffffffffffffffffffffffffffffffffffff168473ffffffffffffffffffffffffffffffffffffffff161480610d555750610d548185610afd565b5b80610d9357508373ffffffffffffffffffffffffffffffffffffffff16610d7b84610490565b73ffffffffffffffffffffffffffffffffffffffff16145b91505092915050565b8273ffffffffffffffffffffffffffffffffffffffff16610dbc8261066e565b73ffffffffffffffffffffffffffffffffffffffff1614610e12576040517f08c379a0000000000000000000000000000000000000000000000000000000008152600401610e0990611e6c565b60405180910390fd5b600073ffffffffffffffffffffffffffffffffffffffff168273ffffffffffffffffffffffffffffffffffffffff161415610e82576040517f08c379a0000000000000000000000000000000000000000000000000000000008152600401610e7990611eac565b60405180910390fd5b610e8d8383836112ca565b610e98600082610c4e565b6001600360008573ffffffffffffffffffffffffffffffffffffffff1673ffffffffffffffffffffffffffffffffffffffff1681526020019081526020016000206000828254610ee8919061211c565b925050819055506001600360008473ffffffffffffffffffffffffffffffffffffffff1673ffffffffffffffffffffffffffffffffffffffff1681526020019081526020016000206000828254610f3f91906120c6565b92505081905550816002600083815260200190815260200160002060006101000a81548173ffffffffffffffffffffffffffffffffffffffff021916908373ffffffffffffffffffffffffffffffffffffffff160217905550808273ffffffffffffffffffffffffffffffffffffffff168473ffffffffffffffffffffffffffffffffffffffff167fddf252ad1be2c89b69c2b068fc378daa952ba7f163c4a11628f55a4df523b3ef60405160405180910390a4610ffe8383836112cf565b505050565b8173ffffffffffffffffffffffffffffffffffffffff168373ffffffffffffffffffffffffffffffffffffffff161415611072576040517f08c379a000000000000000000000000000000000000000000000000000000000815260040161106990611ecc565b60405180910390fd5b80600560008573ffffffffffffffffffffffffffffffffffffffff1673ffffffffffffffffffffffffffffffffffffffff16815260200190815260200160002060008473ffffffffffffffffffffffffffffffffffffffff1673ffffffffffffffffffffffffffffffffffffffff16815260200190815260200160002060006101000a81548160ff0219169083151502179055508173ffffffffffffffffffffffffffffffffffffffff168373ffffffffffffffffffffffffffffffffffffffff167f17307eab39ab6107e8899845ad3d59bd9653f200f220920489ca2b5937696c31836040516111639190611e0f565b60405180910390a3505050565b61117b848484610d9c565b611187848484846112d4565b6111c6576040517f08c379a00000000000000000000000000000000000000000000000000000000081526004016111bd90611e4c565b60405180910390fd5b50505050565b60008073ffffffffffffffffffffffffffffffffffffffff166002600084815260200190815260200160002060009054906101000a900473ffffffffffffffffffffffffffffffffffffffff1673ffffffffffffffffffffffffffffffffffffffff1614159050919050565b61125282826040518060200160405280600081525061146b565b5050565b61125f826111cc565b61129e576040517f08c379a000000000000000000000000000000000000000000000000000000000815260040161129590611f0c565b60405180910390fd5b806006600084815260200190815260200160002090805190602001906112c59291906116c3565b505050565b505050565b505050565b60006112f58473ffffffffffffffffffffffffffffffffffffffff166114c6565b1561145e578373ffffffffffffffffffffffffffffffffffffffff1663150b7a0261131e610c46565b8786866040518563ffffffff1660e01b81526004016113409493929190611dc3565b602060405180830381600087803b15801561135a57600080fd5b505af192505050801561138b57506040513d601f19601f820116820180604052508101906113889190611a9f565b60015b61140e573d80600081146113bb576040519150601f19603f3d011682016040523d82523d6000602084013e6113c0565b606091505b50600081511415611406576040517f08c379a00000000000000000000000000000000000000000000000000000000081526004016113fd90611e4c565b60405180910390fd5b805181602001fd5b63150b7a0260e01b7bffffffffffffffffffffffffffffffffffffffffffffffffffffffff1916817bffffffffffffffffffffffffffffffffffffffffffffffffffffffff191614915050611463565b600190505b949350505050565b61147583836114e9565b61148260008484846112d4565b6114c1576040517f08c379a00000000000000000000000000000000000000000000000000000000081526004016114b890611e4c565b60405180910390fd5b505050565b6000808273ffffffffffffffffffffffffffffffffffffffff163b119050919050565b600073ffffffffffffffffffffffffffffffffffffffff168273ffffffffffffffffffffffffffffffffffffffff161415611559576040517f08c379a000000000000000000000000000000000000000000000000000000000815260040161155090611f4c565b60405180910390fd5b611562816111cc565b156115a2576040517f08c379a000000000000000000000000000000000000000000000000000000000815260040161159990611e8c565b60405180910390fd5b6115ae600083836112ca565b6001600360008473ffffffffffffffffffffffffffffffffffffffff1673ffffffffffffffffffffffffffffffffffffffff16815260200190815260200160002060008282546115fe91906120c6565b92505081905550816002600083815260200190815260200160002060006101000a81548173ffffffffffffffffffffffffffffffffffffffff021916908373ffffffffffffffffffffffffffffffffffffffff160217905550808273ffffffffffffffffffffffffffffffffffffffff16600073ffffffffffffffffffffffffffffffffffffffff167fddf252ad1be2c89b69c2b068fc378daa952ba7f163c4a11628f55a4df523b3ef60405160405180910390a46116bf600083836112cf565b5050565b8280546116cf90612206565b90600052602060002090601f0160209004810192826116f15760008555611738565b82601f1061170a57805160ff1916838001178555611738565b82800160010185558215611738579182015b8281111561173757825182559160200191906001019061171c565b5b5090506117459190611749565b5090565b5b8082111561176257600081600090555060010161174a565b5090565b60006117796117748461202c565b612007565b905082815260208101848484011115611795576117946122fb565b5b6117a08482856121c4565b509392505050565b60006117bb6117b68461205d565b612007565b9050828152602081018484840111156117d7576117d66122fb565b5b6117e28482856121c4565b509392505050565b6000813590506117f981612686565b92915050565b60008135905061180e8161269d565b92915050565b600081359050611823816126b4565b92915050565b600081519050611838816126b4565b92915050565b600082601f830112611853576118526122f6565b5b8135611863848260208601611766565b91505092915050565b600082601f830112611881576118806122f6565b5b81356118918482602086016117a8565b91505092915050565b6000813590506118a9816126cb565b92915050565b6000602082840312156118c5576118c4612305565b5b60006118d3848285016117ea565b91505092915050565b600080604083850312156118f3576118f2612305565b5b6000611901858286016117ea565b9250506020611912858286016117ea565b9150509250929050565b60008060006060848603121561193557611934612305565b5b6000611943868287016117ea565b9350506020611954868287016117ea565b92505060406119658682870161189a565b9150509250925092565b6000806000806080858703121561198957611988612305565b5b6000611997878288016117ea565b94505060206119a8878288016117ea565b93505060406119b98782880161189a565b925050606085013567ffffffffffffffff8111156119da576119d9612300565b5b6119e68782880161183e565b91505092959194509250565b60008060408385031215611a0957611a08612305565b5b6000611a17858286016117ea565b9250506020611a28858286016117ff565b9150509250929050565b60008060408385031215611a4957611a48612305565b5b6000611a57858286016117ea565b9250506020611a688582860161189a565b9150509250929050565b600060208284031215611a8857611a87612305565b5b6000611a9684828501611814565b91505092915050565b600060208284031215611ab557611ab4612305565b5b6000611ac384828501611829565b91505092915050565b600060208284031215611ae257611ae1612305565b5b600082013567ffffffffffffffff811115611b0057611aff612300565b5b611b0c8482850161186c565b91505092915050565b600060208284031215611b2b57611b2a612305565b5b6000611b398482850161189a565b91505092915050565b611b4b81612150565b82525050565b611b5a81612162565b82525050565b6000611b6b8261208e565b611b7581856120a4565b9350611b858185602086016121d3565b611b8e8161230a565b840191505092915050565b6000611ba482612099565b611bae81856120b5565b9350611bbe8185602086016121d3565b611bc78161230a565b840191505092915050565b6000611bdf6032836120b5565b9150611bea8261231b565b604082019050919050565b6000611c026025836120b5565b9150611c0d8261236a565b604082019050919050565b6000611c25601c836120b5565b9150611c30826123b9565b602082019050919050565b6000611c486024836120b5565b9150611c53826123e2565b604082019050919050565b6000611c6b6019836120b5565b9150611c7682612431565b602082019050919050565b6000611c8e6029836120b5565b9150611c998261245a565b604082019050919050565b6000611cb1602e836120b5565b9150611cbc826124a9565b604082019050919050565b6000611cd4603e836120b5565b9150611cdf826124f8565b604082019050919050565b6000611cf76020836120b5565b9150611d0282612547565b602082019050919050565b6000611d1a602f836120b5565b9150611d2582612570565b604082019050919050565b6000611d3d6018836120b5565b9150611d48826125bf565b602082019050919050565b6000611d606021836120b5565b9150611d6b826125e8565b604082019050919050565b6000611d83602e836120b5565b9150611d8e82612637565b604082019050919050565b611da2816121ba565b82525050565b6000602082019050611dbd6000830184611b42565b92915050565b6000608082019050611dd86000830187611b42565b611de56020830186611b42565b611df26040830185611d99565b8181036060830152611e048184611b60565b905095945050505050565b6000602082019050611e246000830184611b51565b92915050565b60006020820190508181036000830152611e448184611b99565b905092915050565b60006020820190508181036000830152611e6581611bd2565b9050919050565b60006020820190508181036000830152611e8581611bf5565b9050919050565b60006020820190508181036000830152611ea581611c18565b9050919050565b60006020820190508181036000830152611ec581611c3b565b9050919050565b60006020820190508181036000830152611ee581611c5e565b9050919050565b60006020820190508181036000830152611f0581611c81565b9050919050565b60006020820190508181036000830152611f2581611ca4565b9050919050565b60006020820190508181036000830152611f4581611cc7565b9050919050565b60006020820190508181036000830152611f6581611cea565b9050919050565b60006020820190508181036000830152611f8581611d0d565b9050919050565b60006020820190508181036000830152611fa581611d30565b9050919050565b60006020820190508181036000830152611fc581611d53565b9050919050565b60006020820190508181036000830152611fe581611d76565b9050919050565b60006020820190506120016000830184611d99565b92915050565b6000612011612022565b905061201d8282612238565b919050565b6000604051905090565b600067ffffffffffffffff821115612047576120466122c7565b5b6120508261230a565b9050602081019050919050565b600067ffffffffffffffff821115612078576120776122c7565b5b6120818261230a565b9050602081019050919050565b600081519050919050565b600081519050919050565b600082825260208201905092915050565b600082825260208201905092915050565b60006120d1826121ba565b91506120dc836121ba565b9250827fffffffffffffffffffffffffffffffffffffffffffffffffffffffffffffffff0382111561211157612110612269565b5b828201905092915050565b6000612127826121ba565b9150612132836121ba565b92508282101561214557612144612269565b5b828203905092915050565b600061215b8261219a565b9050919050565b60008115159050919050565b60007fffffffff0000000000000000000000000000000000000000000000000000000082169050919050565b600073ffffffffffffffffffffffffffffffffffffffff82169050919050565b6000819050919050565b82818337600083830152505050565b60005b838110156121f15780820151818401526020810190506121d6565b83811115612200576000848401525b50505050565b6000600282049050600182168061221e57607f821691505b6020821081141561223257612231612298565b5b50919050565b6122418261230a565b810181811067ffffffffffffffff821117156122605761225f6122c7565b5b80604052505050565b7f4e487b7100000000000000000000000000000000000000000000000000000000600052601160045260246000fd5b7f4e487b7100000000000000000000000000000000000000000000000000000000600052602260045260246000fd5b7f4e487b7100000000000000000000000000000000000000000000000000000000600052604160045260246000fd5b600080fd5b600080fd5b600080fd5b600080fd5b6000601f19601f8301169050919050565b7f4552433732313a207472616e7366657220746f206e6f6e20455243373231526560008201527f63656976657220696d706c656d656e7465720000000000000000000000000000602082015250565b7f4552433732313a207472616e736665722066726f6d20696e636f72726563742060008201527f6f776e6572000000000000000000000000000000000000000000000000000000602082015250565b7f4552433732313a20746f6b656e20616c7265616479206d696e74656400000000600082015250565b7f4552433732313a207472616e7366657220746f20746865207a65726f2061646460008201527f7265737300000000000000000000000000000000000000000000000000000000602082015250565b7f4552433732313a20617070726f766520746f2063616c6c657200000000000000600082015250565b7f4552433732313a2061646472657373207a65726f206973206e6f74206120766160008201527f6c6964206f776e65720000000000000000000000000000000000000000000000602082015250565b7f45524337323155524953746f726167653a2055524920736574206f66206e6f6e60008201527f6578697374656e7420746f6b656e000000000000000000000000000000000000602082015250565b7f4552433732313a20617070726f76652063616c6c6572206973206e6f7420746f60008201527f6b656e206f776e6572206e6f7220617070726f76656420666f7220616c6c0000602082015250565b7f4552433732313a206d696e7420746f20746865207a65726f2061646472657373600082015250565b7f4552433732314d657461646174613a2055524920717565727920666f72206e6f60008201527f6e6578697374656e7420746f6b656e0000000000000000000000000000000000602082015250565b7f4552433732313a20696e76616c696420746f6b656e2049440000000000000000600082015250565b7f4552433732313a20617070726f76616c20746f2063757272656e74206f776e6560008201527f7200000000000000000000000000000000000000000000000000000000000000602082015250565b7f4552433732313a2063616c6c6572206973206e6f7420746f6b656e206f776e6560008201527f72206e6f7220617070726f766564000000000000000000000000000000000000602082015250565b61268f81612150565b811461269a57600080fd5b50565b6126a681612162565b81146126b157600080fd5b50565b6126bd8161216e565b81146126c857600080fd5b50565b6126d4816121ba565b81146126df57600080fd5b5056fea26469706673582212207270042fb062b8a6f50678bc5a61dced16b359632cf015b1d3bc966338cae8bd64736f6c63430008070033",
  "linkReferences": {},
  "deployedLinkReferences": {}
}